{
  "_format": "hh-sol-artifact-1",
  "contractName": "MyEpicNFT",
  "sourceName": "contracts/MyEpicNFT.sol",
  "abi": [
    {
      "inputs": [],
      "stateMutability": "nonpayable",
      "type": "constructor"
    },
    {
      "anonymous": false,
      "inputs": [
        {
          "indexed": true,
          "internalType": "address",
          "name": "owner",
          "type": "address"
        },
        {
          "indexed": true,
          "internalType": "address",
          "name": "approved",
          "type": "address"
        },
        {
          "indexed": true,
          "internalType": "uint256",
          "name": "tokenId",
          "type": "uint256"
        }
      ],
      "name": "Approval",
      "type": "event"
    },
    {
      "anonymous": false,
      "inputs": [
        {
          "indexed": true,
          "internalType": "address",
          "name": "owner",
          "type": "address"
        },
        {
          "indexed": true,
          "internalType": "address",
          "name": "operator",
          "type": "address"
        },
        {
          "indexed": false,
          "internalType": "bool",
          "name": "approved",
          "type": "bool"
        }
      ],
      "name": "ApprovalForAll",
      "type": "event"
    },
    {
      "anonymous": false,
      "inputs": [
        {
          "indexed": false,
          "internalType": "address",
          "name": "sender",
          "type": "address"
        },
        {
          "indexed": false,
          "internalType": "uint256",
          "name": "tokenId",
          "type": "uint256"
        }
      ],
      "name": "NewEpicNFTMinted",
      "type": "event"
    },
    {
      "anonymous": false,
      "inputs": [
        {
          "indexed": true,
          "internalType": "address",
          "name": "from",
          "type": "address"
        },
        {
          "indexed": true,
          "internalType": "address",
          "name": "to",
          "type": "address"
        },
        {
          "indexed": true,
          "internalType": "uint256",
          "name": "tokenId",
          "type": "uint256"
        }
      ],
      "name": "Transfer",
      "type": "event"
    },
    {
      "inputs": [
        {
          "internalType": "address",
          "name": "to",
          "type": "address"
        },
        {
          "internalType": "uint256",
          "name": "tokenId",
          "type": "uint256"
        }
      ],
      "name": "approve",
      "outputs": [],
      "stateMutability": "nonpayable",
      "type": "function"
    },
    {
      "inputs": [
        {
          "internalType": "address",
          "name": "owner",
          "type": "address"
        }
      ],
      "name": "balanceOf",
      "outputs": [
        {
          "internalType": "uint256",
          "name": "",
          "type": "uint256"
        }
      ],
      "stateMutability": "view",
      "type": "function"
    },
    {
      "inputs": [
        {
          "internalType": "uint256",
          "name": "tokenId",
          "type": "uint256"
        }
      ],
      "name": "getApproved",
      "outputs": [
        {
          "internalType": "address",
          "name": "",
          "type": "address"
        }
      ],
      "stateMutability": "view",
      "type": "function"
    },
    {
      "inputs": [],
      "name": "getTotalNFTsMintedSoFar",
      "outputs": [
        {
          "internalType": "uint256",
          "name": "",
          "type": "uint256"
        }
      ],
      "stateMutability": "view",
      "type": "function"
    },
    {
      "inputs": [
        {
          "internalType": "address",
          "name": "owner",
          "type": "address"
        },
        {
          "internalType": "address",
          "name": "operator",
          "type": "address"
        }
      ],
      "name": "isApprovedForAll",
      "outputs": [
        {
          "internalType": "bool",
          "name": "",
          "type": "bool"
        }
      ],
      "stateMutability": "view",
      "type": "function"
    },
    {
      "inputs": [],
      "name": "makeAnEpicNFT",
      "outputs": [],
      "stateMutability": "nonpayable",
      "type": "function"
    },
    {
      "inputs": [],
      "name": "mintLimit",
      "outputs": [
        {
          "internalType": "uint256",
          "name": "",
          "type": "uint256"
        }
      ],
      "stateMutability": "view",
      "type": "function"
    },
    {
      "inputs": [],
      "name": "name",
      "outputs": [
        {
          "internalType": "string",
          "name": "",
          "type": "string"
        }
      ],
      "stateMutability": "view",
      "type": "function"
    },
    {
      "inputs": [
        {
          "internalType": "uint256",
          "name": "tokenId",
          "type": "uint256"
        }
      ],
      "name": "ownerOf",
      "outputs": [
        {
          "internalType": "address",
          "name": "",
          "type": "address"
        }
      ],
      "stateMutability": "view",
      "type": "function"
    },
    {
      "inputs": [
        {
          "internalType": "uint256",
          "name": "tokenId",
          "type": "uint256"
        }
      ],
      "name": "pickRandomFirstWord",
      "outputs": [
        {
          "internalType": "string",
          "name": "",
          "type": "string"
        }
      ],
      "stateMutability": "view",
      "type": "function"
    },
    {
      "inputs": [
        {
          "internalType": "uint256",
          "name": "tokenId",
          "type": "uint256"
        }
      ],
      "name": "pickRandomSecondWord",
      "outputs": [
        {
          "internalType": "string",
          "name": "",
          "type": "string"
        }
      ],
      "stateMutability": "view",
      "type": "function"
    },
    {
      "inputs": [
        {
          "internalType": "uint256",
          "name": "tokenId",
          "type": "uint256"
        }
      ],
      "name": "pickRandomThirdWord",
      "outputs": [
        {
          "internalType": "string",
          "name": "",
          "type": "string"
        }
      ],
      "stateMutability": "view",
      "type": "function"
    },
    {
      "inputs": [
        {
          "internalType": "address",
          "name": "from",
          "type": "address"
        },
        {
          "internalType": "address",
          "name": "to",
          "type": "address"
        },
        {
          "internalType": "uint256",
          "name": "tokenId",
          "type": "uint256"
        }
      ],
      "name": "safeTransferFrom",
      "outputs": [],
      "stateMutability": "nonpayable",
      "type": "function"
    },
    {
      "inputs": [
        {
          "internalType": "address",
          "name": "from",
          "type": "address"
        },
        {
          "internalType": "address",
          "name": "to",
          "type": "address"
        },
        {
          "internalType": "uint256",
          "name": "tokenId",
          "type": "uint256"
        },
        {
          "internalType": "bytes",
          "name": "_data",
          "type": "bytes"
        }
      ],
      "name": "safeTransferFrom",
      "outputs": [],
      "stateMutability": "nonpayable",
      "type": "function"
    },
    {
      "inputs": [
        {
          "internalType": "address",
          "name": "operator",
          "type": "address"
        },
        {
          "internalType": "bool",
          "name": "approved",
          "type": "bool"
        }
      ],
      "name": "setApprovalForAll",
      "outputs": [],
      "stateMutability": "nonpayable",
      "type": "function"
    },
    {
      "inputs": [
        {
          "internalType": "bytes4",
          "name": "interfaceId",
          "type": "bytes4"
        }
      ],
      "name": "supportsInterface",
      "outputs": [
        {
          "internalType": "bool",
          "name": "",
          "type": "bool"
        }
      ],
      "stateMutability": "view",
      "type": "function"
    },
    {
      "inputs": [],
      "name": "symbol",
      "outputs": [
        {
          "internalType": "string",
          "name": "",
          "type": "string"
        }
      ],
      "stateMutability": "view",
      "type": "function"
    },
    {
      "inputs": [
        {
          "internalType": "uint256",
          "name": "tokenId",
          "type": "uint256"
        }
      ],
      "name": "tokenURI",
      "outputs": [
        {
          "internalType": "string",
          "name": "",
          "type": "string"
        }
      ],
      "stateMutability": "view",
      "type": "function"
    },
    {
      "inputs": [
        {
          "internalType": "address",
          "name": "from",
          "type": "address"
        },
        {
          "internalType": "address",
          "name": "to",
          "type": "address"
        },
        {
          "internalType": "uint256",
          "name": "tokenId",
          "type": "uint256"
        }
      ],
      "name": "transferFrom",
      "outputs": [],
      "stateMutability": "nonpayable",
      "type": "function"
    }
  ],
  "bytecode": "0x60806040526045600855604051806101600160405280610135815260200162004c3a6101359139600990805190602001906200003d92919062000f83565b506040518061024001604052806040518060400160405280600681526020017f416273757264000000000000000000000000000000000000000000000000000081525081526020016040518060400160405280600981526020017f48696c6172696f7573000000000000000000000000000000000000000000000081525081526020016040518060400160405280600a81526020017f5269646963756c6f75730000000000000000000000000000000000000000000081525081526020016040518060400160405280600981526020017f5768696d736963616c000000000000000000000000000000000000000000000081525081526020016040518060400160405280600581526020017f53696c6c7900000000000000000000000000000000000000000000000000000081525081526020016040518060400160405280600881526020017f4172726f67616e7400000000000000000000000000000000000000000000000081525081526020016040518060400160405280600a81526020017f526562656c6c696f75730000000000000000000000000000000000000000000081525081526020016040518060400160405280600881526020017f4d616e696163616c00000000000000000000000000000000000000000000000081525081526020016040518060400160405280600781526020017f4861746566756c0000000000000000000000000000000000000000000000000081525081526020016040518060400160405280600681526020017f477265656479000000000000000000000000000000000000000000000000000081525081526020016040518060400160405280600581526020017f5368616b7900000000000000000000000000000000000000000000000000000081525081526020016040518060400160405280600881526020017f416c61726d696e6700000000000000000000000000000000000000000000000081525081526020016040518060400160405280600781526020017f5573656c6573730000000000000000000000000000000000000000000000000081525081526020016040518060400160405280600881526020017f56656e676566756c00000000000000000000000000000000000000000000000081525081526020016040518060400160405280600881526020017f53747562626f726e00000000000000000000000000000000000000000000000081525081526020016040518060400160405280600481526020017f4c617a790000000000000000000000000000000000000000000000000000000081525081526020016040518060400160405280600581526020017f546972656400000000000000000000000000000000000000000000000000000081525081526020016040518060400160405280600981526020017f4578686175737465640000000000000000000000000000000000000000000000815250815250600a9060126200048092919062001014565b506040518061024001604052806040518060400160405280600581526020017f42726f776e00000000000000000000000000000000000000000000000000000081525081526020016040518060400160405280600381526020017f526564000000000000000000000000000000000000000000000000000000000081525081526020016040518060400160405280600581526020017f477265656e00000000000000000000000000000000000000000000000000000081525081526020016040518060400160405280600481526020017f50696e6b0000000000000000000000000000000000000000000000000000000081525081526020016040518060400160405280600681526020017f507572706c65000000000000000000000000000000000000000000000000000081525081526020016040518060400160405280600681526020017f59656c6c6f77000000000000000000000000000000000000000000000000000081525081526020016040518060400160405280600581526020017f477265656e00000000000000000000000000000000000000000000000000000081525081526020016040518060400160405280600481526020017f426c75650000000000000000000000000000000000000000000000000000000081525081526020016040518060400160405280600a81526020017f5065726977696e6b6c650000000000000000000000000000000000000000000081525081526020016040518060400160405280600a81526020017f5665726d696c6c696f6e0000000000000000000000000000000000000000000081525081526020016040518060400160405280600681526020017f476f6c64656e000000000000000000000000000000000000000000000000000081525081526020016040518060400160405280600681526020017f53696c766572000000000000000000000000000000000000000000000000000081525081526020016040518060400160405280600781526020017f4469616d6f6e640000000000000000000000000000000000000000000000000081525081526020016040518060400160405280600581526020017f576869746500000000000000000000000000000000000000000000000000000081525081526020016040518060400160405280600581526020017f426c61636b00000000000000000000000000000000000000000000000000000081525081526020016040518060400160405280600481526020017f477265790000000000000000000000000000000000000000000000000000000081525081526020016040518060400160405280600b81526020017f5472616e73706172656e7400000000000000000000000000000000000000000081525081526020016040518060400160405280600681526020017f4f72616e67650000000000000000000000000000000000000000000000000000815250815250600b906012620008c392919062001014565b50604051806102a001604052806040518060400160405280600481526020017f43726f770000000000000000000000000000000000000000000000000000000081525081526020016040518060400160405280600781526020017f4f706f7373756d0000000000000000000000000000000000000000000000000081525081526020016040518060400160405280600781526020017f42756666616c6f0000000000000000000000000000000000000000000000000081525081526020016040518060400160405280600881526020017f5265696e6465657200000000000000000000000000000000000000000000000081525081526020016040518060400160405280600481526020017f4d6f6c650000000000000000000000000000000000000000000000000000000081525081526020016040518060400160405280600681526020017f4c697a617264000000000000000000000000000000000000000000000000000081525081526020016040518060400160405280600881526020017f506c61747970757300000000000000000000000000000000000000000000000081525081526020016040518060400160405280600781526020017f4c656f706172640000000000000000000000000000000000000000000000000081525081526020016040518060400160405280600581526020017f4c656d757200000000000000000000000000000000000000000000000000000081525081526020016040518060400160405280600581526020017f43616d656c00000000000000000000000000000000000000000000000000000081525081526020016040518060400160405280600681526020017f4d6f6e6b6579000000000000000000000000000000000000000000000000000081525081526020016040518060400160405280600681526020017f416c70616361000000000000000000000000000000000000000000000000000081525081526020016040518060400160405280600881526020017f44726f706265617200000000000000000000000000000000000000000000000081525081526020016040518060400160405280600481526020017f5365616c0000000000000000000000000000000000000000000000000000000081525081526020016040518060400160405280600381526020017f466f78000000000000000000000000000000000000000000000000000000000081525081526020016040518060400160405280600481526020017f46726f670000000000000000000000000000000000000000000000000000000081525081526020016040518060400160405280600481526020017f476f61740000000000000000000000000000000000000000000000000000000081525081526020016040518060400160405280600481526020017f576f6c660000000000000000000000000000000000000000000000000000000081525081526020016040518060400160405280600881526020017f416e74696c6f706500000000000000000000000000000000000000000000000081525081526020016040518060400160405280600481526020017f4c696f6e0000000000000000000000000000000000000000000000000000000081525081526020016040518060400160405280600881526020017f456c657068616e74000000000000000000000000000000000000000000000000815250815250600c90601562000db79291906200107b565b5034801562000dc557600080fd5b506040518060400160405280600a81526020017f556e69716f726e4e4654000000000000000000000000000000000000000000008152506040518060400160405280600481526020017f554e495100000000000000000000000000000000000000000000000000000000815250816000908051906020019062000e4a92919062000f83565b50806001908051906020019062000e6392919062000f83565b50505062000eb16040518060400160405280601e81526020017f54686973206973206d79204e465420636f6e74726163742e2057686f6121000081525062000eb760201b620012ef1760201c565b6200129c565b62000f578160405160240162000ece9190620011b0565b6040516020818303038152906040527f41304fac000000000000000000000000000000000000000000000000000000007bffffffffffffffffffffffffffffffffffffffffffffffffffffffff19166020820180517bffffffffffffffffffffffffffffffffffffffffffffffffffffffff838183161783525050505062000f5a60201b60201c565b50565b60008151905060006a636f6e736f6c652e6c6f679050602083016000808483855afa5050505050565b82805462000f919062001226565b90600052602060002090601f01602090048101928262000fb5576000855562001001565b82601f1062000fd057805160ff191683800117855562001001565b8280016001018555821562001001579182015b828111156200100057825182559160200191906001019062000fe3565b5b509050620010109190620010e2565b5090565b82805482825590600052602060002090810192821562001068579160200282015b82811115620010675782518290805190602001906200105692919062000f83565b509160200191906001019062001035565b5b50905062001077919062001101565b5090565b828054828255906000526020600020908101928215620010cf579160200282015b82811115620010ce578251829080519060200190620010bd92919062000f83565b50916020019190600101906200109c565b5b509050620010de919062001101565b5090565b5b80821115620010fd576000816000905550600101620010e3565b5090565b5b808211156200112557600081816200111b919062001129565b5060010162001102565b5090565b508054620011379062001226565b6000825580601f106200114b57506200116c565b601f0160209004906000526020600020908101906200116b9190620010e2565b5b50565b60006200117c82620011d4565b620011888185620011df565b93506200119a818560208601620011f0565b620011a5816200128b565b840191505092915050565b60006020820190508181036000830152620011cc81846200116f565b905092915050565b600081519050919050565b600082825260208201905092915050565b60005b8381101562001210578082015181840152602081019050620011f3565b8381111562001220576000848401525b50505050565b600060028204905060018216806200123f57607f821691505b602082108114156200125657620012556200125c565b5b50919050565b7f4e487b7100000000000000000000000000000000000000000000000000000000600052602260045260246000fd5b6000601f19601f8301169050919050565b61398e80620012ac6000396000f3fe608060405234801561001057600080fd5b50600436106101215760003560e01c806370a08231116100ad578063b88d4fde11610071578063b88d4fde1461032e578063c575757a1461034a578063c87b56dd1461037a578063de9d132f146103aa578063e985e9c5146103b457610121565b806370a082311461027657806395d89b41146102a6578063996517cf146102c4578063a22cb465146102e2578063b187301f146102fe57610121565b8063095ea7b3116100f4578063095ea7b3146101c257806323b872dd146101de5780632de38d68146101fa57806342842e0e1461022a5780636352211e1461024657610121565b806301ffc9a714610126578063060475901461015657806306fdde0314610174578063081812fc14610192575b600080fd5b610140600480360381019061013b9190612582565b6103e4565b60405161014d91906131e4565b60405180910390f35b61015e6104c6565b60405161016b919061347f565b60405180910390f35b61017c6104e3565b60405161018991906131ff565b60405180910390f35b6101ac60048036038101906101a791906125d4565b610575565b6040516101b99190613154565b60405180910390f35b6101dc60048036038101906101d79190612546565b6105fa565b005b6101f860048036038101906101f39190612440565b610712565b005b610214600480360381019061020f91906125d4565b610772565b60405161022191906131ff565b60405180910390f35b610244600480360381019061023f9190612440565b610890565b005b610260600480360381019061025b91906125d4565b6108b0565b60405161026d9190613154565b60405180910390f35b610290600480360381019061028b91906123db565b610962565b60405161029d919061347f565b60405180910390f35b6102ae610a1a565b6040516102bb91906131ff565b60405180910390f35b6102cc610aac565b6040516102d9919061347f565b60405180910390f35b6102fc60048036038101906102f7919061250a565b610ab2565b005b610318600480360381019061031391906125d4565b610c33565b60405161032591906131ff565b60405180910390f35b6103486004803603810190610343919061248f565b610d51565b005b610364600480360381019061035f91906125d4565b610db3565b60405161037191906131ff565b60405180910390f35b610394600480360381019061038f91906125d4565b610ed1565b6040516103a191906131ff565b60405180910390f35b6103b2611023565b005b6103ce60048036038101906103c99190612404565b61125b565b6040516103db91906131e4565b60405180910390f35b60007f80ac58cd000000000000000000000000000000000000000000000000000000007bffffffffffffffffffffffffffffffffffffffffffffffffffffffff1916827bffffffffffffffffffffffffffffffffffffffffffffffffffffffff191614806104af57507f5b5e139f000000000000000000000000000000000000000000000000000000007bffffffffffffffffffffffffffffffffffffffffffffffffffffffff1916827bffffffffffffffffffffffffffffffffffffffffffffffffffffffff1916145b806104bf57506104be82611388565b5b9050919050565b600060016104d460076113f2565b6104de9190613553565b905090565b6060600080546104f29061371e565b80601f016020809104026020016040519081016040528092919081815260200182805461051e9061371e565b801561056b5780601f106105405761010080835404028352916020019161056b565b820191906000526020600020905b81548152906001019060200180831161054e57829003601f168201915b5050505050905090565b600061058082611400565b6105bf576040517f08c379a00000000000000000000000000000000000000000000000000000000081526004016105b6906133df565b60405180910390fd5b6004600083815260200190815260200160002060009054906101000a900473ffffffffffffffffffffffffffffffffffffffff169050919050565b6000610605826108b0565b90508073ffffffffffffffffffffffffffffffffffffffff168373ffffffffffffffffffffffffffffffffffffffff161415610676576040517f08c379a000000000000000000000000000000000000000000000000000000000815260040161066d9061343f565b60405180910390fd5b8073ffffffffffffffffffffffffffffffffffffffff1661069561146c565b73ffffffffffffffffffffffffffffffffffffffff1614806106c457506106c3816106be61146c565b61125b565b5b610703576040517f08c379a00000000000000000000000000000000000000000000000000000000081526004016106fa906132ff565b60405180910390fd5b61070d8383611474565b505050565b61072361071d61146c565b8261152d565b610762576040517f08c379a00000000000000000000000000000000000000000000000000000000081526004016107599061345f565b60405180910390fd5b61076d83838361160b565b505050565b606060006107a661078284611867565b6040516020016107929190613110565b604051602081830303815290604052611a14565b9050600a80549050816107b99190613799565b9050600a81815481106107f5577f4e487b7100000000000000000000000000000000000000000000000000000000600052603260045260246000fd5b90600052602060002001805461080a9061371e565b80601f01602080910402602001604051908101604052809291908181526020018280546108369061371e565b80156108835780601f1061085857610100808354040283529160200191610883565b820191906000526020600020905b81548152906001019060200180831161086657829003601f168201915b5050505050915050919050565b6108ab83838360405180602001604052806000815250610d51565b505050565b6000806002600084815260200190815260200160002060009054906101000a900473ffffffffffffffffffffffffffffffffffffffff169050600073ffffffffffffffffffffffffffffffffffffffff168173ffffffffffffffffffffffffffffffffffffffff161415610959576040517f08c379a00000000000000000000000000000000000000000000000000000000081526004016109509061333f565b60405180910390fd5b80915050919050565b60008073ffffffffffffffffffffffffffffffffffffffff168273ffffffffffffffffffffffffffffffffffffffff1614156109d3576040517f08c379a00000000000000000000000000000000000000000000000000000000081526004016109ca9061331f565b60405180910390fd5b600360008373ffffffffffffffffffffffffffffffffffffffff1673ffffffffffffffffffffffffffffffffffffffff168152602001908152602001600020549050919050565b606060018054610a299061371e565b80601f0160208091040260200160405190810160405280929190818152602001828054610a559061371e565b8015610aa25780601f10610a7757610100808354040283529160200191610aa2565b820191906000526020600020905b815481529060010190602001808311610a8557829003601f168201915b5050505050905090565b60085481565b610aba61146c565b73ffffffffffffffffffffffffffffffffffffffff168273ffffffffffffffffffffffffffffffffffffffff161415610b28576040517f08c379a0000000000000000000000000000000000000000000000000000000008152600401610b1f906132bf565b60405180910390fd5b8060056000610b3561146c565b73ffffffffffffffffffffffffffffffffffffffff1673ffffffffffffffffffffffffffffffffffffffff16815260200190815260200160002060008473ffffffffffffffffffffffffffffffffffffffff1673ffffffffffffffffffffffffffffffffffffffff16815260200190815260200160002060006101000a81548160ff0219169083151502179055508173ffffffffffffffffffffffffffffffffffffffff16610be261146c565b73ffffffffffffffffffffffffffffffffffffffff167f17307eab39ab6107e8899845ad3d59bd9653f200f220920489ca2b5937696c3183604051610c2791906131e4565b60405180910390a35050565b60606000610c67610c4384611867565b604051602001610c5391906130a9565b604051602081830303815290604052611a14565b9050600b8054905081610c7a9190613799565b9050600b8181548110610cb6577f4e487b7100000000000000000000000000000000000000000000000000000000600052603260045260246000fd5b906000526020600020018054610ccb9061371e565b80601f0160208091040260200160405190810160405280929190818152602001828054610cf79061371e565b8015610d445780601f10610d1957610100808354040283529160200191610d44565b820191906000526020600020905b815481529060010190602001808311610d2757829003601f168201915b5050505050915050919050565b610d62610d5c61146c565b8361152d565b610da1576040517f08c379a0000000000000000000000000000000000000000000000000000000008152600401610d989061345f565b60405180910390fd5b610dad84848484611a47565b50505050565b60606000610de7610dc384611867565b604051602001610dd39190613087565b604051602081830303815290604052611a14565b9050600c8054905081610dfa9190613799565b9050600c8181548110610e36577f4e487b7100000000000000000000000000000000000000000000000000000000600052603260045260246000fd5b906000526020600020018054610e4b9061371e565b80601f0160208091040260200160405190810160405280929190818152602001828054610e779061371e565b8015610ec45780601f10610e9957610100808354040283529160200191610ec4565b820191906000526020600020905b815481529060010190602001808311610ea757829003601f168201915b5050505050915050919050565b6060610edc82611400565b610f1b576040517f08c379a0000000000000000000000000000000000000000000000000000000008152600401610f12906133bf565b60405180910390fd5b6000600660008481526020019081526020016000208054610f3b9061371e565b80601f0160208091040260200160405190810160405280929190818152602001828054610f679061371e565b8015610fb45780601f10610f8957610100808354040283529160200191610fb4565b820191906000526020600020905b815481529060010190602001808311610f9757829003601f168201915b505050505090506000610fc5611aa3565b9050600081511415610fdb57819250505061101e565b600082511115611010578082604051602001610ff8929190613003565b6040516020818303038152906040529250505061101e565b61101984611aba565b925050505b919050565b600061102f60076113f2565b90506008546001826110419190613553565b1115611082576040517f08c379a00000000000000000000000000000000000000000000000000000000081526004016110799061337f565b60405180910390fd5b600061108d82610772565b9050600061109a83610c33565b905060006110a784610db3565b905060008383836040516020016110c093929190613027565b604051602081830303815290604052905060006009826040516020016110e7929190613058565b6040516020818303038152906040529050600061112c8361110784611b61565b6040516020016111189291906130cb565b604051602081830303815290604052611b61565b90506000816040516020016111419190613132565b60405160208183030381529060405290506111906040518060400160405280601581526020017f0a2d2d2d2d2d2d2d2d2d2d2d2d2d2d2d2d2d2d2d2d00000000000000000000008152506112ef565b611199816112ef565b6111d76040518060400160405280601581526020017f2d2d2d2d2d2d2d2d2d2d2d2d2d2d2d2d2d2d2d2d0a00000000000000000000008152506112ef565b6111e13389611d1f565b6111eb8882611d3d565b6111f56007611db1565b6112186040518060600160405280602581526020016138f4602591398933611dc7565b7febb98688741ffa4c7589bf325de30cf7becb63de567842e1ccdb6cb949fdc82c33896040516112499291906131bb565b60405180910390a15050505050505050565b6000600560008473ffffffffffffffffffffffffffffffffffffffff1673ffffffffffffffffffffffffffffffffffffffff16815260200190815260200160002060008373ffffffffffffffffffffffffffffffffffffffff1673ffffffffffffffffffffffffffffffffffffffff16815260200190815260200160002060009054906101000a900460ff16905092915050565b6113858160405160240161130391906131ff565b6040516020818303038152906040527f41304fac000000000000000000000000000000000000000000000000000000007bffffffffffffffffffffffffffffffffffffffffffffffffffffffff19166020820180517bffffffffffffffffffffffffffffffffffffffffffffffffffffffff8381831617835250505050611e66565b50565b60007f01ffc9a7000000000000000000000000000000000000000000000000000000007bffffffffffffffffffffffffffffffffffffffffffffffffffffffff1916827bffffffffffffffffffffffffffffffffffffffffffffffffffffffff1916149050919050565b600081600001549050919050565b60008073ffffffffffffffffffffffffffffffffffffffff166002600084815260200190815260200160002060009054906101000a900473ffffffffffffffffffffffffffffffffffffffff1673ffffffffffffffffffffffffffffffffffffffff1614159050919050565b600033905090565b816004600083815260200190815260200160002060006101000a81548173ffffffffffffffffffffffffffffffffffffffff021916908373ffffffffffffffffffffffffffffffffffffffff160217905550808273ffffffffffffffffffffffffffffffffffffffff166114e7836108b0565b73ffffffffffffffffffffffffffffffffffffffff167f8c5be1e5ebec7d5bd14f71427d1e84f3dd0314c0f7b2291e5b200ac8c7c3b92560405160405180910390a45050565b600061153882611400565b611577576040517f08c379a000000000000000000000000000000000000000000000000000000000815260040161156e906132df565b60405180910390fd5b6000611582836108b0565b90508073ffffffffffffffffffffffffffffffffffffffff168473ffffffffffffffffffffffffffffffffffffffff1614806115f157508373ffffffffffffffffffffffffffffffffffffffff166115d984610575565b73ffffffffffffffffffffffffffffffffffffffff16145b806116025750611601818561125b565b5b91505092915050565b8273ffffffffffffffffffffffffffffffffffffffff1661162b826108b0565b73ffffffffffffffffffffffffffffffffffffffff1614611681576040517f08c379a0000000000000000000000000000000000000000000000000000000008152600401611678906133ff565b60405180910390fd5b600073ffffffffffffffffffffffffffffffffffffffff168273ffffffffffffffffffffffffffffffffffffffff1614156116f1576040517f08c379a00000000000000000000000000000000000000000000000000000000081526004016116e89061329f565b60405180910390fd5b6116fc838383611e8f565b611707600082611474565b6001600360008573ffffffffffffffffffffffffffffffffffffffff1673ffffffffffffffffffffffffffffffffffffffff16815260200190815260200160002060008282546117579190613634565b925050819055506001600360008473ffffffffffffffffffffffffffffffffffffffff1673ffffffffffffffffffffffffffffffffffffffff16815260200190815260200160002060008282546117ae9190613553565b92505081905550816002600083815260200190815260200160002060006101000a81548173ffffffffffffffffffffffffffffffffffffffff021916908373ffffffffffffffffffffffffffffffffffffffff160217905550808273ffffffffffffffffffffffffffffffffffffffff168473ffffffffffffffffffffffffffffffffffffffff167fddf252ad1be2c89b69c2b068fc378daa952ba7f163c4a11628f55a4df523b3ef60405160405180910390a4505050565b606060008214156118af576040518060400160405280600181526020017f30000000000000000000000000000000000000000000000000000000000000008152509050611a0f565b600082905060005b600082146118e15780806118ca90613750565b915050600a826118da91906135a9565b91506118b7565b60008167ffffffffffffffff811115611923577f4e487b7100000000000000000000000000000000000000000000000000000000600052604160045260246000fd5b6040519080825280601f01601f1916602001820160405280156119555781602001600182028036833780820191505090505b5090505b60008514611a085760018261196e9190613634565b9150600a8561197d9190613799565b60306119899190613553565b60f81b8183815181106119c5577f4e487b7100000000000000000000000000000000000000000000000000000000600052603260045260246000fd5b60200101907effffffffffffffffffffffffffffffffffffffffffffffffffffffffffffff1916908160001a905350600a85611a0191906135a9565b9450611959565b8093505050505b919050565b600081604051602001611a279190612fec565b6040516020818303038152906040528051906020012060001c9050919050565b611a5284848461160b565b611a5e84848484611e94565b611a9d576040517f08c379a0000000000000000000000000000000000000000000000000000000008152600401611a949061325f565b60405180910390fd5b50505050565b606060405180602001604052806000815250905090565b6060611ac582611400565b611b04576040517f08c379a0000000000000000000000000000000000000000000000000000000008152600401611afb9061341f565b60405180910390fd5b6000611b0e611aa3565b90506000815111611b2e5760405180602001604052806000815250611b59565b80611b3884611867565b604051602001611b49929190613003565b6040516020818303038152906040525b915050919050565b60606000825190506000811415611b8a5760405180602001604052806000815250915050611d1a565b60006003600283611b9b9190613553565b611ba591906135a9565b6004611bb191906135da565b90506000602082611bc29190613553565b67ffffffffffffffff811115611c01577f4e487b7100000000000000000000000000000000000000000000000000000000600052604160045260246000fd5b6040519080825280601f01601f191660200182016040528015611c335781602001600182028036833780820191505090505b5090506000604051806060016040528060408152602001613919604091399050600181016020830160005b86811015611cd75760038101905062ffffff818a015116603f8160121c168401518060081b905060ff603f83600c1c1686015116810190508060081b905060ff603f8360061c1686015116810190508060081b905060ff603f831686015116810190508060e01b90508084526004840193505050611c5e565b506003860660018114611cf15760028114611d0157611d0c565b613d3d60f01b6002830352611d0c565b603d60f81b60018303525b508484525050819450505050505b919050565b611d3982826040518060200160405280600081525061202b565b5050565b611d4682611400565b611d85576040517f08c379a0000000000000000000000000000000000000000000000000000000008152600401611d7c9061335f565b60405180910390fd5b80600660008481526020019081526020016000209080519060200190611dac929190612267565b505050565b6001816000016000828254019250508190555050565b611e61838383604051602401611ddf93929190613221565b6040516020818303038152906040527fe3849f79000000000000000000000000000000000000000000000000000000007bffffffffffffffffffffffffffffffffffffffffffffffffffffffff19166020820180517bffffffffffffffffffffffffffffffffffffffffffffffffffffffff8381831617835250505050611e66565b505050565b60008151905060006a636f6e736f6c652e6c6f679050602083016000808483855afa5050505050565b505050565b6000611eb58473ffffffffffffffffffffffffffffffffffffffff16612086565b1561201e578373ffffffffffffffffffffffffffffffffffffffff1663150b7a02611ede61146c565b8786866040518563ffffffff1660e01b8152600401611f00949392919061316f565b602060405180830381600087803b158015611f1a57600080fd5b505af1925050508015611f4b57506040513d601f19601f82011682018060405250810190611f4891906125ab565b60015b611fce573d8060008114611f7b576040519150601f19603f3d011682016040523d82523d6000602084013e611f80565b606091505b50600081511415611fc6576040517f08c379a0000000000000000000000000000000000000000000000000000000008152600401611fbd9061325f565b60405180910390fd5b805181602001fd5b63150b7a0260e01b7bffffffffffffffffffffffffffffffffffffffffffffffffffffffff1916817bffffffffffffffffffffffffffffffffffffffffffffffffffffffff191614915050612023565b600190505b949350505050565b6120358383612099565b6120426000848484611e94565b612081576040517f08c379a00000000000000000000000000000000000000000000000000000000081526004016120789061325f565b60405180910390fd5b505050565b600080823b905060008111915050919050565b600073ffffffffffffffffffffffffffffffffffffffff168273ffffffffffffffffffffffffffffffffffffffff161415612109576040517f08c379a00000000000000000000000000000000000000000000000000000000081526004016121009061339f565b60405180910390fd5b61211281611400565b15612152576040517f08c379a00000000000000000000000000000000000000000000000000000000081526004016121499061327f565b60405180910390fd5b61215e60008383611e8f565b6001600360008473ffffffffffffffffffffffffffffffffffffffff1673ffffffffffffffffffffffffffffffffffffffff16815260200190815260200160002060008282546121ae9190613553565b92505081905550816002600083815260200190815260200160002060006101000a81548173ffffffffffffffffffffffffffffffffffffffff021916908373ffffffffffffffffffffffffffffffffffffffff160217905550808273ffffffffffffffffffffffffffffffffffffffff16600073ffffffffffffffffffffffffffffffffffffffff167fddf252ad1be2c89b69c2b068fc378daa952ba7f163c4a11628f55a4df523b3ef60405160405180910390a45050565b8280546122739061371e565b90600052602060002090601f01602090048101928261229557600085556122dc565b82601f106122ae57805160ff19168380011785556122dc565b828001600101855582156122dc579182015b828111156122db5782518255916020019190600101906122c0565b5b5090506122e991906122ed565b5090565b5b808211156123065760008160009055506001016122ee565b5090565b600061231d612318846134cb565b61349a565b90508281526020810184848401111561233557600080fd5b6123408482856136dc565b509392505050565b60008135905061235781613897565b92915050565b60008135905061236c816138ae565b92915050565b600081359050612381816138c5565b92915050565b600081519050612396816138c5565b92915050565b600082601f8301126123ad57600080fd5b81356123bd84826020860161230a565b91505092915050565b6000813590506123d5816138dc565b92915050565b6000602082840312156123ed57600080fd5b60006123fb84828501612348565b91505092915050565b6000806040838503121561241757600080fd5b600061242585828601612348565b925050602061243685828601612348565b9150509250929050565b60008060006060848603121561245557600080fd5b600061246386828701612348565b935050602061247486828701612348565b9250506040612485868287016123c6565b9150509250925092565b600080600080608085870312156124a557600080fd5b60006124b387828801612348565b94505060206124c487828801612348565b93505060406124d5878288016123c6565b925050606085013567ffffffffffffffff8111156124f257600080fd5b6124fe8782880161239c565b91505092959194509250565b6000806040838503121561251d57600080fd5b600061252b85828601612348565b925050602061253c8582860161235d565b9150509250929050565b6000806040838503121561255957600080fd5b600061256785828601612348565b9250506020612578858286016123c6565b9150509250929050565b60006020828403121561259457600080fd5b60006125a284828501612372565b91505092915050565b6000602082840312156125bd57600080fd5b60006125cb84828501612387565b91505092915050565b6000602082840312156125e657600080fd5b60006125f4848285016123c6565b91505092915050565b61260681613668565b82525050565b6126158161367a565b82525050565b600061262682613510565b6126308185613526565b93506126408185602086016136eb565b61264981613886565b840191505092915050565b600061265f8261351b565b6126698185613537565b93506126798185602086016136eb565b61268281613886565b840191505092915050565b60006126988261351b565b6126a28185613548565b93506126b28185602086016136eb565b80840191505092915050565b600081546126cb8161371e565b6126d58186613548565b945060018216600081146126f0576001811461270157612734565b60ff19831686528186019350612734565b61270a856134fb565b60005b8381101561272c5781548189015260018201915060208101905061270d565b838801955050505b50505092915050565b600061274a603283613537565b91507f4552433732313a207472616e7366657220746f206e6f6e20455243373231526560008301527f63656976657220696d706c656d656e74657200000000000000000000000000006020830152604082019050919050565b60006127b0601c83613537565b91507f4552433732313a20746f6b656e20616c7265616479206d696e746564000000006000830152602082019050919050565b60006127f0600a83613548565b91507f54484952445f574f5244000000000000000000000000000000000000000000006000830152600a82019050919050565b6000612830602483613537565b91507f4552433732313a207472616e7366657220746f20746865207a65726f2061646460008301527f72657373000000000000000000000000000000000000000000000000000000006020830152604082019050919050565b6000612896601983613537565b91507f4552433732313a20617070726f766520746f2063616c6c6572000000000000006000830152602082019050919050565b60006128d6600b83613548565b91507f5345434f4e445f574f52440000000000000000000000000000000000000000006000830152600b82019050919050565b6000612916602c83613537565b91507f4552433732313a206f70657261746f7220717565727920666f72206e6f6e657860008301527f697374656e7420746f6b656e00000000000000000000000000000000000000006020830152604082019050919050565b600061297c600d83613548565b91507f3c2f746578743e3c2f7376673e000000000000000000000000000000000000006000830152600d82019050919050565b60006129bc603883613537565b91507f4552433732313a20617070726f76652063616c6c6572206973206e6f74206f7760008301527f6e6572206e6f7220617070726f76656420666f7220616c6c00000000000000006020830152604082019050919050565b6000612a22602a83613537565b91507f4552433732313a2062616c616e636520717565727920666f7220746865207a6560008301527f726f2061646472657373000000000000000000000000000000000000000000006020830152604082019050919050565b6000612a88602983613537565b91507f4552433732313a206f776e657220717565727920666f72206e6f6e657869737460008301527f656e7420746f6b656e00000000000000000000000000000000000000000000006020830152604082019050919050565b6000612aee602e83613537565b91507f45524337323155524953746f726167653a2055524920736574206f66206e6f6e60008301527f6578697374656e7420746f6b656e0000000000000000000000000000000000006020830152604082019050919050565b6000612b54601583613537565b91507f4d696e74696e67206c696d6974207265616368656400000000000000000000006000830152602082019050919050565b6000612b94600283613548565b91507f227d0000000000000000000000000000000000000000000000000000000000006000830152600282019050919050565b6000612bd4602083613537565b91507f4552433732313a206d696e7420746f20746865207a65726f20616464726573736000830152602082019050919050565b6000612c14603183613537565b91507f45524337323155524953746f726167653a2055524920717565727920666f722060008301527f6e6f6e6578697374656e7420746f6b656e0000000000000000000000000000006020830152604082019050919050565b6000612c7a602c83613537565b91507f4552433732313a20617070726f76656420717565727920666f72206e6f6e657860008301527f697374656e7420746f6b656e00000000000000000000000000000000000000006020830152604082019050919050565b6000612ce0602983613537565b91507f4552433732313a207472616e73666572206f6620746f6b656e2074686174206960008301527f73206e6f74206f776e00000000000000000000000000000000000000000000006020830152604082019050919050565b6000612d46606183613548565b91507f222c20226465736372697074696f6e223a20224120686967686c79206163636c60008301527f61696d656420636f6c6c656374696f6e206f6620776f7264732e222c2022696d60208301527f616765223a2022646174613a696d6167652f7376672b786d6c3b62617365363460408301527f2c000000000000000000000000000000000000000000000000000000000000006060830152606182019050919050565b6000612df8602f83613537565b91507f4552433732314d657461646174613a2055524920717565727920666f72206e6f60008301527f6e6578697374656e7420746f6b656e00000000000000000000000000000000006020830152604082019050919050565b6000612e5e600a83613548565b91507f7b226e616d65223a2022000000000000000000000000000000000000000000006000830152600a82019050919050565b6000612e9e602183613537565b91507f4552433732313a20617070726f76616c20746f2063757272656e74206f776e6560008301527f72000000000000000000000000000000000000000000000000000000000000006020830152604082019050919050565b6000612f04600a83613548565b91507f46495253545f574f5244000000000000000000000000000000000000000000006000830152600a82019050919050565b6000612f44601d83613548565b91507f646174613a6170706c69636174696f6e2f6a736f6e3b6261736536342c0000006000830152601d82019050919050565b6000612f84603183613537565b91507f4552433732313a207472616e736665722063616c6c6572206973206e6f74206f60008301527f776e6572206e6f7220617070726f7665640000000000000000000000000000006020830152604082019050919050565b612fe6816136d2565b82525050565b6000612ff8828461268d565b915081905092915050565b600061300f828561268d565b915061301b828461268d565b91508190509392505050565b6000613033828661268d565b915061303f828561268d565b915061304b828461268d565b9150819050949350505050565b600061306482856126be565b9150613070828461268d565b915061307b8261296f565b91508190509392505050565b6000613092826127e3565b915061309e828461268d565b915081905092915050565b60006130b4826128c9565b91506130c0828461268d565b915081905092915050565b60006130d682612e51565b91506130e2828561268d565b91506130ed82612d39565b91506130f9828461268d565b915061310482612b87565b91508190509392505050565b600061311b82612ef7565b9150613127828461268d565b915081905092915050565b600061313d82612f37565b9150613149828461268d565b915081905092915050565b600060208201905061316960008301846125fd565b92915050565b600060808201905061318460008301876125fd565b61319160208301866125fd565b61319e6040830185612fdd565b81810360608301526131b0818461261b565b905095945050505050565b60006040820190506131d060008301856125fd565b6131dd6020830184612fdd565b9392505050565b60006020820190506131f9600083018461260c565b92915050565b600060208201905081810360008301526132198184612654565b905092915050565b6000606082019050818103600083015261323b8186612654565b905061324a6020830185612fdd565b61325760408301846125fd565b949350505050565b600060208201905081810360008301526132788161273d565b9050919050565b60006020820190508181036000830152613298816127a3565b9050919050565b600060208201905081810360008301526132b881612823565b9050919050565b600060208201905081810360008301526132d881612889565b9050919050565b600060208201905081810360008301526132f881612909565b9050919050565b60006020820190508181036000830152613318816129af565b9050919050565b6000602082019050818103600083015261333881612a15565b9050919050565b6000602082019050818103600083015261335881612a7b565b9050919050565b6000602082019050818103600083015261337881612ae1565b9050919050565b6000602082019050818103600083015261339881612b47565b9050919050565b600060208201905081810360008301526133b881612bc7565b9050919050565b600060208201905081810360008301526133d881612c07565b9050919050565b600060208201905081810360008301526133f881612c6d565b9050919050565b6000602082019050818103600083015261341881612cd3565b9050919050565b6000602082019050818103600083015261343881612deb565b9050919050565b6000602082019050818103600083015261345881612e91565b9050919050565b6000602082019050818103600083015261347881612f77565b9050919050565b60006020820190506134946000830184612fdd565b92915050565b6000604051905081810181811067ffffffffffffffff821117156134c1576134c0613857565b5b8060405250919050565b600067ffffffffffffffff8211156134e6576134e5613857565b5b601f19601f8301169050602081019050919050565b60008190508160005260206000209050919050565b600081519050919050565b600081519050919050565b600082825260208201905092915050565b600082825260208201905092915050565b600081905092915050565b600061355e826136d2565b9150613569836136d2565b9250827fffffffffffffffffffffffffffffffffffffffffffffffffffffffffffffffff0382111561359e5761359d6137ca565b5b828201905092915050565b60006135b4826136d2565b91506135bf836136d2565b9250826135cf576135ce6137f9565b5b828204905092915050565b60006135e5826136d2565b91506135f0836136d2565b9250817fffffffffffffffffffffffffffffffffffffffffffffffffffffffffffffffff0483118215151615613629576136286137ca565b5b828202905092915050565b600061363f826136d2565b915061364a836136d2565b92508282101561365d5761365c6137ca565b5b828203905092915050565b6000613673826136b2565b9050919050565b60008115159050919050565b60007fffffffff0000000000000000000000000000000000000000000000000000000082169050919050565b600073ffffffffffffffffffffffffffffffffffffffff82169050919050565b6000819050919050565b82818337600083830152505050565b60005b838110156137095780820151818401526020810190506136ee565b83811115613718576000848401525b50505050565b6000600282049050600182168061373657607f821691505b6020821081141561374a57613749613828565b5b50919050565b600061375b826136d2565b91507fffffffffffffffffffffffffffffffffffffffffffffffffffffffffffffffff82141561378e5761378d6137ca565b5b600182019050919050565b60006137a4826136d2565b91506137af836136d2565b9250826137bf576137be6137f9565b5b828206905092915050565b7f4e487b7100000000000000000000000000000000000000000000000000000000600052601160045260246000fd5b7f4e487b7100000000000000000000000000000000000000000000000000000000600052601260045260246000fd5b7f4e487b7100000000000000000000000000000000000000000000000000000000600052602260045260246000fd5b7f4e487b7100000000000000000000000000000000000000000000000000000000600052604160045260246000fd5b6000601f19601f8301169050919050565b6138a081613668565b81146138ab57600080fd5b50565b6138b78161367a565b81146138c257600080fd5b50565b6138ce81613686565b81146138d957600080fd5b50565b6138e5816136d2565b81146138f057600080fd5b5056fe416e204e465420772f20494420257320686173206265656e206d696e74656420746f2025734142434445464748494a4b4c4d4e4f505152535455565758595a6162636465666768696a6b6c6d6e6f707172737475767778797a303132333435363738392b2fa2646970667358221220dca139d66ea41a8ec1557c8b736438c1ec7d4863d8b3d23b6dc059aedfd1f80464736f6c634300080000333c73766720786d6c6e733d27687474703a2f2f7777772e77332e6f72672f323030302f73766727207072657365727665417370656374526174696f3d27784d696e594d696e206d656574272076696577426f783d273020302033353020333530273e3c7374796c653e2e62617365207b2066696c6c3a2077686974653b20666f6e742d66616d696c793a206d6f6e6f73706163653b20666f6e742d73697a653a20323470783b207d3c2f7374796c653e3c726563742077696474683d273130302527206865696768743d2731303025272066696c6c3d272331423232333227202f3e3c7465787420783d273530252720793d273530252720636c6173733d27626173652720646f6d696e616e742d626173656c696e653d276d6964646c652720746578742d616e63686f723d276d6964646c65273e",
  "linkReferences": {},
  "deployedLinkReferences": {}
}